{
  "contractName": "Auction",
  "abi": [
    {
      "inputs": [
        {
          "internalType": "address payable",
          "name": "eoa",
          "type": "address"
        }
      ],
      "stateMutability": "nonpayable",
      "type": "constructor"
    },
    {
      "anonymous": false,
      "inputs": [
        {
          "indexed": false,
          "internalType": "address",
          "name": "_address",
          "type": "address"
        }
      ],
      "name": "AuctionUpdated",
      "type": "event"
    },
    {
      "inputs": [],
      "name": "auctionDescription",
      "outputs": [
        {
          "internalType": "string",
          "name": "",
          "type": "string"
        }
      ],
      "stateMutability": "view",
      "type": "function"
    },
    {
      "inputs": [],
      "name": "auctionState",
      "outputs": [
        {
          "internalType": "enum Auction.State",
          "name": "",
          "type": "uint8"
        }
      ],
      "stateMutability": "view",
      "type": "function"
    },
    {
      "inputs": [],
      "name": "auctionTitle",
      "outputs": [
        {
          "internalType": "string",
          "name": "",
          "type": "string"
        }
      ],
      "stateMutability": "view",
      "type": "function"
    },
    {
      "inputs": [
        {
          "internalType": "address",
          "name": "",
          "type": "address"
        }
      ],
      "name": "bids",
      "outputs": [
        {
          "internalType": "uint256",
          "name": "",
          "type": "uint256"
        }
      ],
      "stateMutability": "view",
      "type": "function"
    },
    {
      "inputs": [],
      "name": "endDate",
      "outputs": [
        {
          "internalType": "uint256",
          "name": "",
          "type": "uint256"
        }
      ],
      "stateMutability": "view",
      "type": "function"
    },
    {
      "inputs": [],
      "name": "highestBidder",
      "outputs": [
        {
          "internalType": "address payable",
          "name": "",
          "type": "address"
        }
      ],
      "stateMutability": "view",
      "type": "function"
    },
    {
      "inputs": [],
      "name": "highestBindingBid",
      "outputs": [
        {
          "internalType": "uint256",
          "name": "",
          "type": "uint256"
        }
      ],
      "stateMutability": "view",
      "type": "function"
    },
    {
      "inputs": [],
      "name": "ipfsHashes",
      "outputs": [
        {
          "internalType": "string",
          "name": "",
          "type": "string"
        }
      ],
      "stateMutability": "view",
      "type": "function"
    },
    {
      "inputs": [],
      "name": "owner",
      "outputs": [
        {
          "internalType": "address payable",
          "name": "",
          "type": "address"
        }
      ],
      "stateMutability": "view",
      "type": "function"
    },
    {
      "inputs": [],
      "name": "ownerFinalized",
      "outputs": [
        {
          "internalType": "bool",
          "name": "",
          "type": "bool"
        }
      ],
      "stateMutability": "view",
      "type": "function"
    },
    {
      "inputs": [],
      "name": "startBlock",
      "outputs": [
        {
          "internalType": "uint256",
          "name": "",
          "type": "uint256"
        }
      ],
      "stateMutability": "view",
      "type": "function"
    },
    {
      "inputs": [],
      "name": "cancelAuction",
      "outputs": [],
      "stateMutability": "nonpayable",
      "type": "function"
    },
    {
      "inputs": [
        {
          "internalType": "string",
          "name": "_title",
          "type": "string"
        },
        {
          "internalType": "string",
          "name": "_description",
          "type": "string"
        },
        {
          "internalType": "string",
          "name": "_ipfsHashes",
          "type": "string"
        },
        {
          "internalType": "uint256",
          "name": "_endDate",
          "type": "uint256"
        }
      ],
      "name": "updateAuction",
      "outputs": [],
      "stateMutability": "nonpayable",
      "type": "function"
    },
    {
      "inputs": [
        {
          "internalType": "address",
          "name": "_sender",
          "type": "address"
        }
      ],
      "name": "isBidder",
      "outputs": [
        {
          "internalType": "bool",
          "name": "",
          "type": "bool"
        }
      ],
      "stateMutability": "view",
      "type": "function"
    },
    {
      "inputs": [
        {
          "internalType": "address",
          "name": "_sender",
          "type": "address"
        }
      ],
      "name": "canBid",
      "outputs": [
        {
          "internalType": "bool",
          "name": "",
          "type": "bool"
        }
      ],
      "stateMutability": "view",
      "type": "function"
    },
    {
      "inputs": [
        {
          "internalType": "uint256",
          "name": "_timestamp",
          "type": "uint256"
        },
        {
          "internalType": "address",
          "name": "_sender",
          "type": "address"
        }
      ],
      "name": "canFinalize",
      "outputs": [
        {
          "internalType": "bool",
          "name": "",
          "type": "bool"
        }
      ],
      "stateMutability": "view",
      "type": "function"
    },
    {
      "inputs": [],
      "name": "placeBid",
      "outputs": [
        {
          "internalType": "bool",
          "name": "",
          "type": "bool"
        }
      ],
      "stateMutability": "payable",
      "type": "function"
    },
    {
      "inputs": [],
      "name": "finalizeAuction",
      "outputs": [],
      "stateMutability": "nonpayable",
      "type": "function"
    }
  ],
  "bytecode": "0x60806040526102586001556000600c60006101000a81548160ff0219169083151502179055503480156200003257600080fd5b5060405162001d0438038062001d04833981810160405281019062000058919062000154565b806000806101000a81548173ffffffffffffffffffffffffffffffffffffffff021916908373ffffffffffffffffffffffffffffffffffffffff1602179055506000600760006101000a81548160ff02191690836003811115620000c157620000c062000186565b5b02179055504260028190555060006003819055506601c6bf52634000600b8190555050620001b5565b600080fd5b600073ffffffffffffffffffffffffffffffffffffffff82169050919050565b60006200011c82620000ef565b9050919050565b6200012e816200010f565b81146200013a57600080fd5b50565b6000815190506200014e8162000123565b92915050565b6000602082840312156200016d576200016c620000ea565b5b60006200017d848285016200013d565b91505092915050565b7f4e487b7100000000000000000000000000000000000000000000000000000000600052602160045260246000fd5b611b3f80620001c56000396000f3fe6080604052600436106101095760003560e01c806391f9015711610095578063e416d3b211610064578063e416d3b21461035d578063ecfc7ecc1461039a578063f33145ab146103b8578063f5b56c56146103e3578063f77282ab1461040e57610109565b806391f90157146102b357806393b728ab146102de578063a17bf88414610307578063c24a0f8b1461033257610109565b806362ea82db116100dc57806362ea82db146101de5780637fb450991461021b5780638b7b097f146102465780638da5cb5b146102715780638fa8b7901461029c57610109565b806319fde1f61461010e5780631dceace81461014b5780634182dbf21461017657806348cd4cb1146101b3575b600080fd5b34801561011a57600080fd5b5061013560048036038101906101309190611493565b610425565b60405161014291906114db565b60405180910390f35b34801561015757600080fd5b50610160610470565b60405161016d919061158f565b60405180910390f35b34801561018257600080fd5b5061019d600480360381019061019891906115e7565b6104fe565b6040516101aa91906114db565b60405180910390f35b3480156101bf57600080fd5b506101c861060a565b6040516101d59190611636565b60405180910390f35b3480156101ea57600080fd5b5061020560048036038101906102009190611493565b610610565b6040516102129190611636565b60405180910390f35b34801561022757600080fd5b50610230610628565b60405161023d91906116c8565b60405180910390f35b34801561025257600080fd5b5061025b61063b565b60405161026891906114db565b60405180910390f35b34801561027d57600080fd5b5061028661064e565b6040516102939190611704565b60405180910390f35b3480156102a857600080fd5b506102b1610672565b005b3480156102bf57600080fd5b506102c861072e565b6040516102d59190611704565b60405180910390f35b3480156102ea57600080fd5b5061030560048036038101906103009190611854565b610754565b005b34801561031357600080fd5b5061031c610941565b604051610329919061158f565b60405180910390f35b34801561033e57600080fd5b506103476109cf565b6040516103549190611636565b60405180910390f35b34801561036957600080fd5b50610384600480360381019061037f9190611493565b6109d5565b60405161039191906114db565b60405180910390f35b6103a2610a6e565b6040516103af91906114db565b60405180910390f35b3480156103c457600080fd5b506103cd610dd4565b6040516103da919061158f565b60405180910390f35b3480156103ef57600080fd5b506103f8610e62565b6040516104059190611636565b60405180910390f35b34801561041a57600080fd5b50610423610e68565b005b600080600a60008473ffffffffffffffffffffffffffffffffffffffff1673ffffffffffffffffffffffffffffffffffffffff16815260200190815260200160002054119050919050565b6006805461047d9061193e565b80601f01602080910402602001604051908101604052809291908181526020018280546104a99061193e565b80156104f65780601f106104cb576101008083540402835291602001916104f6565b820191906000526020600020905b8154815290600101906020018083116104d957829003601f168201915b505050505081565b600060038081111561051357610512611651565b5b600760009054906101000a900460ff16600381111561053557610534611651565b5b1480610542575060035483115b8015610602575060008054906101000a900473ffffffffffffffffffffffffffffffffffffffff1673ffffffffffffffffffffffffffffffffffffffff168273ffffffffffffffffffffffffffffffffffffffff161480156105b7575060001515600c60009054906101000a900460ff161515145b8061060157506000600a60008473ffffffffffffffffffffffffffffffffffffffff1673ffffffffffffffffffffffffffffffffffffffff16815260200190815260200160002054115b5b905092915050565b60025481565b600a6020528060005260406000206000915090505481565b600760009054906101000a900460ff1681565b600c60009054906101000a900460ff1681565b60008054906101000a900473ffffffffffffffffffffffffffffffffffffffff1681565b60008054906101000a900473ffffffffffffffffffffffffffffffffffffffff1673ffffffffffffffffffffffffffffffffffffffff163373ffffffffffffffffffffffffffffffffffffffff16146106ca57600080fd5b6003600760006101000a81548160ff021916908360038111156106f0576106ef611651565b5b02179055507fb53fa3ac8a5a3b4074ef200f128c7e87d27e53afb9d98d33f5ea003e60b4c27030604051610724919061197f565b60405180910390a1565b600960009054906101000a900473ffffffffffffffffffffffffffffffffffffffff1681565b60008054906101000a900473ffffffffffffffffffffffffffffffffffffffff1673ffffffffffffffffffffffffffffffffffffffff163373ffffffffffffffffffffffffffffffffffffffff16146107ac57600080fd5b838051906020012060056040516107c39190611a39565b6040518091039020146107da576107d9846112c1565b5b828051906020012060066040516107f19190611a39565b6040518091039020146108085761080783611312565b5b8180519060200120600460405161081f9190611a39565b60405180910390201461084457816004908051906020019061084292919061137e565b505b806003541461085557806003819055505b6000600381111561086957610868611651565b5b600760009054906101000a900460ff16600381111561088b5761088a611651565b5b1480156108c45750604051806020016040528060008152508051906020012060056040516108b99190611a39565b604051809103902014155b80156108d35750600060035414155b15610904576001600760006101000a81548160ff021916908360038111156108fe576108fd611651565b5b02179055505b7fb53fa3ac8a5a3b4074ef200f128c7e87d27e53afb9d98d33f5ea003e60b4c27030604051610933919061197f565b60405180910390a150505050565b6005805461094e9061193e565b80601f016020809104026020016040519081016040528092919081815260200182805461097a9061193e565b80156109c75780601f1061099c576101008083540402835291602001916109c7565b820191906000526020600020905b8154815290600101906020018083116109aa57829003601f168201915b505050505081565b60035481565b60008060009054906101000a900473ffffffffffffffffffffffffffffffffffffffff1673ffffffffffffffffffffffffffffffffffffffff168273ffffffffffffffffffffffffffffffffffffffff1614158015610a67575060016003811115610a4357610a42611651565b5b600760009054906101000a900460ff166003811115610a6557610a64611651565b5b145b9050919050565b600060016003811115610a8457610a83611651565b5b600760009054906101000a900460ff166003811115610aa657610aa5611651565b5b14610ab057600080fd5b60008054906101000a900473ffffffffffffffffffffffffffffffffffffffff1673ffffffffffffffffffffffffffffffffffffffff163373ffffffffffffffffffffffffffffffffffffffff161415610b0957600080fd5b60016003811115610b1d57610b1c611651565b5b600760009054906101000a900460ff166003811115610b3f57610b3e611651565b5b14610b4957600080fd5b600034600a60003373ffffffffffffffffffffffffffffffffffffffff1673ffffffffffffffffffffffffffffffffffffffff16815260200190815260200160002054610b969190611a7f565b90506008548111610ba657600080fd5b80600a60003373ffffffffffffffffffffffffffffffffffffffff1673ffffffffffffffffffffffffffffffffffffffff16815260200190815260200160002081905550600a6000600960009054906101000a900473ffffffffffffffffffffffffffffffffffffffff1673ffffffffffffffffffffffffffffffffffffffff1673ffffffffffffffffffffffffffffffffffffffff168152602001908152602001600020548111610cd557610cca600b5482610c639190611a7f565b600a6000600960009054906101000a900473ffffffffffffffffffffffffffffffffffffffff1673ffffffffffffffffffffffffffffffffffffffff1673ffffffffffffffffffffffffffffffffffffffff16815260200190815260200160002054611363565b600881905550610d95565b610d4d81600b54600a6000600960009054906101000a900473ffffffffffffffffffffffffffffffffffffffff1673ffffffffffffffffffffffffffffffffffffffff1673ffffffffffffffffffffffffffffffffffffffff16815260200190815260200160002054610d489190611a7f565b611363565b60088190555033600960006101000a81548173ffffffffffffffffffffffffffffffffffffffff021916908373ffffffffffffffffffffffffffffffffffffffff1602179055505b7fb53fa3ac8a5a3b4074ef200f128c7e87d27e53afb9d98d33f5ea003e60b4c27030604051610dc4919061197f565b60405180910390a1600191505090565b60048054610de19061193e565b80601f0160208091040260200160405190810160405280929190818152602001828054610e0d9061193e565b8015610e5a5780601f10610e2f57610100808354040283529160200191610e5a565b820191906000526020600020905b815481529060010190602001808311610e3d57829003601f168201915b505050505081565b60085481565b600380811115610e7b57610e7a611651565b5b600760009054906101000a900460ff166003811115610e9d57610e9c611651565b5b1480610eaa575060035442115b610eb357600080fd5b60008054906101000a900473ffffffffffffffffffffffffffffffffffffffff1673ffffffffffffffffffffffffffffffffffffffff163373ffffffffffffffffffffffffffffffffffffffff16148015610f21575060001515600c60009054906101000a900460ff161515145b80610f6b57506000600a60003373ffffffffffffffffffffffffffffffffffffffff1673ffffffffffffffffffffffffffffffffffffffff16815260200190815260200160002054115b610f7457600080fd5b600080600380811115610f8a57610f89611651565b5b600760009054906101000a900460ff166003811115610fac57610fab611651565b5b1415610ffc57339150600a60003373ffffffffffffffffffffffffffffffffffffffff1673ffffffffffffffffffffffffffffffffffffffff1681526020019081526020016000205490506111f9565b60008054906101000a900473ffffffffffffffffffffffffffffffffffffffff1673ffffffffffffffffffffffffffffffffffffffff163373ffffffffffffffffffffffffffffffffffffffff1614156110c05760001515600c60009054906101000a900460ff16151514156110b45760008054906101000a900473ffffffffffffffffffffffffffffffffffffffff16915060085490506001600c60006101000a81548160ff0219169083151502179055506110bb565b50506112bf565b6111f8565b600960009054906101000a900473ffffffffffffffffffffffffffffffffffffffff1673ffffffffffffffffffffffffffffffffffffffff163373ffffffffffffffffffffffffffffffffffffffff1614156111b157600960009054906101000a900473ffffffffffffffffffffffffffffffffffffffff169150600854600a6000600960009054906101000a900473ffffffffffffffffffffffffffffffffffffffff1673ffffffffffffffffffffffffffffffffffffffff1673ffffffffffffffffffffffffffffffffffffffff168152602001908152602001600020546111aa9190611ad5565b90506111f7565b339150600a60003373ffffffffffffffffffffffffffffffffffffffff1673ffffffffffffffffffffffffffffffffffffffff1681526020019081526020016000205490505b5b5b6000600a60008473ffffffffffffffffffffffffffffffffffffffff1673ffffffffffffffffffffffffffffffffffffffff168152602001908152602001600020819055508173ffffffffffffffffffffffffffffffffffffffff166108fc829081150290604051600060405180830381858888f19350505050158015611284573d6000803e3d6000fd5b507fb53fa3ac8a5a3b4074ef200f128c7e87d27e53afb9d98d33f5ea003e60b4c270306040516112b4919061197f565b60405180910390a150505b565b80600590805190602001906112d792919061137e565b507fb53fa3ac8a5a3b4074ef200f128c7e87d27e53afb9d98d33f5ea003e60b4c27030604051611307919061197f565b60405180910390a150565b806006908051906020019061132892919061137e565b507fb53fa3ac8a5a3b4074ef200f128c7e87d27e53afb9d98d33f5ea003e60b4c27030604051611358919061197f565b60405180910390a150565b600081831161137457829050611378565b8190505b92915050565b82805461138a9061193e565b90600052602060002090601f0160209004810192826113ac57600085556113f3565b82601f106113c557805160ff19168380011785556113f3565b828001600101855582156113f3579182015b828111156113f25782518255916020019190600101906113d7565b5b5090506114009190611404565b5090565b5b8082111561141d576000816000905550600101611405565b5090565b6000604051905090565b600080fd5b600080fd5b600073ffffffffffffffffffffffffffffffffffffffff82169050919050565b600061146082611435565b9050919050565b61147081611455565b811461147b57600080fd5b50565b60008135905061148d81611467565b92915050565b6000602082840312156114a9576114a861142b565b5b60006114b78482850161147e565b91505092915050565b60008115159050919050565b6114d5816114c0565b82525050565b60006020820190506114f060008301846114cc565b92915050565b600081519050919050565b600082825260208201905092915050565b60005b83811015611530578082015181840152602081019050611515565b8381111561153f576000848401525b50505050565b6000601f19601f8301169050919050565b6000611561826114f6565b61156b8185611501565b935061157b818560208601611512565b61158481611545565b840191505092915050565b600060208201905081810360008301526115a98184611556565b905092915050565b6000819050919050565b6115c4816115b1565b81146115cf57600080fd5b50565b6000813590506115e1816115bb565b92915050565b600080604083850312156115fe576115fd61142b565b5b600061160c858286016115d2565b925050602061161d8582860161147e565b9150509250929050565b611630816115b1565b82525050565b600060208201905061164b6000830184611627565b92915050565b7f4e487b7100000000000000000000000000000000000000000000000000000000600052602160045260246000fd5b6004811061169157611690611651565b5b50565b60008190506116a282611680565b919050565b60006116b282611694565b9050919050565b6116c2816116a7565b82525050565b60006020820190506116dd60008301846116b9565b92915050565b60006116ee82611435565b9050919050565b6116fe816116e3565b82525050565b600060208201905061171960008301846116f5565b92915050565b600080fd5b600080fd5b7f4e487b7100000000000000000000000000000000000000000000000000000000600052604160045260246000fd5b61176182611545565b810181811067ffffffffffffffff821117156117805761177f611729565b5b80604052505050565b6000611793611421565b905061179f8282611758565b919050565b600067ffffffffffffffff8211156117bf576117be611729565b5b6117c882611545565b9050602081019050919050565b82818337600083830152505050565b60006117f76117f2846117a4565b611789565b90508281526020810184848401111561181357611812611724565b5b61181e8482856117d5565b509392505050565b600082601f83011261183b5761183a61171f565b5b813561184b8482602086016117e4565b91505092915050565b6000806000806080858703121561186e5761186d61142b565b5b600085013567ffffffffffffffff81111561188c5761188b611430565b5b61189887828801611826565b945050602085013567ffffffffffffffff8111156118b9576118b8611430565b5b6118c587828801611826565b935050604085013567ffffffffffffffff8111156118e6576118e5611430565b5b6118f287828801611826565b9250506060611903878288016115d2565b91505092959194509250565b7f4e487b7100000000000000000000000000000000000000000000000000000000600052602260045260246000fd5b6000600282049050600182168061195657607f821691505b6020821081141561196a5761196961190f565b5b50919050565b61197981611455565b82525050565b60006020820190506119946000830184611970565b92915050565b600081905092915050565b60008190508160005260206000209050919050565b600081546119c78161193e565b6119d1818661199a565b945060018216600081146119ec57600181146119fd57611a30565b60ff19831686528186019350611a30565b611a06856119a5565b60005b83811015611a2857815481890152600182019150602081019050611a09565b838801955050505b50505092915050565b6000611a4582846119ba565b915081905092915050565b7f4e487b7100000000000000000000000000000000000000000000000000000000600052601160045260246000fd5b6000611a8a826115b1565b9150611a95836115b1565b9250827fffffffffffffffffffffffffffffffffffffffffffffffffffffffffffffffff03821115611aca57611ac9611a50565b5b828201905092915050565b6000611ae0826115b1565b9150611aeb836115b1565b925082821015611afe57611afd611a50565b5b82820390509291505056fea2646970667358221220bba6f767e1f2e32dac9f686f69f30656e546b7851fe977472eea7d7b89eb329c64736f6c634300080c0033",
  "immutableReferences": {},
  "source": "//SPDX-License-Identifier: GPL-3.0\r\n\r\npragma solidity >=0.6.0 <0.9.0;\r\n\r\ncontract Auction{\r\n    address payable public owner;\r\n    uint auctionSeconds = 10 * 60; // 10 mins to test //3 * 24 * 60 * 60; // 3 days for auction\r\n    uint256 public startBlock;\r\n    uint256 public endDate;\r\n    string public ipfsHashes;\r\n    //uint32 public maxIpfsHashesCount = 4;\r\n\r\n    string public auctionTitle;\r\n    string public auctionDescription;\r\n    \r\n    enum State {Started, Running, Ended, Canceled}\r\n    State public auctionState;\r\n    \r\n    uint public highestBindingBid;\r\n    \r\n    address payable public highestBidder;\r\n    mapping(address => uint) public bids;\r\n    uint bidIncrement;\r\n    \r\n    //the owner can finalize the auction and get the highestBindingBid only once\r\n    bool public ownerFinalized = false;\r\n    \r\n    event AuctionUpdated(address _address);\r\n\r\n    constructor(address payable eoa) {\r\n        owner = eoa;\r\n        auctionState = State.Started;\r\n\r\n        //setIpfsHashes(_imagesHashes);\r\n        //setTitle(_title);\r\n        //setDescription(_description);(_description);\r\n\r\n        startBlock = block.timestamp;\r\n        endDate = 0;\r\n        bidIncrement = 500000000000000;\r\n    }\r\n    \r\n    // declaring function modifiers\r\n    modifier notOwner() {\r\n        require(msg.sender != owner);\r\n        _;\r\n    }\r\n    \r\n    modifier onlyOwner() {\r\n        require(msg.sender == owner);\r\n        _;\r\n    }\r\n    \r\n    modifier auctionIsRunning() {\r\n        require(auctionState == State.Running);\r\n        _;\r\n    }\r\n    \r\n    //a helper pure function (it neither reads, nor it writes to the blockchain)\r\n    function min(uint a, uint b) pure internal returns(uint) {\r\n        if (a <= b){\r\n            return a;\r\n        } else {\r\n            return b;\r\n        }\r\n    }\r\n    \r\n    // only the owner can cancel the Auction\r\n    function cancelAuction() public onlyOwner {\r\n        auctionState = State.Canceled;\r\n        emit AuctionUpdated(address(this));\r\n    }\r\n\r\n    function setIpfsHashes(string memory _imagesHashes) private {\r\n        ipfsHashes = _imagesHashes;\r\n    }\r\n\r\n    function setTitle(string memory _title) private {\r\n        auctionTitle = _title;\r\n        emit AuctionUpdated(address(this));\r\n    }\r\n\r\n    function setDescription(string memory _description) private {\r\n        auctionDescription = _description;\r\n        emit AuctionUpdated(address(this));\r\n    }\r\n\r\n    function updateAuction(string memory _title, string memory _description, string memory _ipfsHashes, uint256 _endDate) public onlyOwner {\r\n        if( keccak256(bytes(auctionTitle)) != keccak256(bytes(_title)) ){\r\n            setTitle(_title);\r\n        }\r\n        if( keccak256(bytes(auctionDescription)) != keccak256(bytes(_description)) ){\r\n            setDescription(_description);\r\n        }\r\n        if( keccak256(bytes(ipfsHashes)) != keccak256(bytes(_ipfsHashes)) ){\r\n           ipfsHashes = _ipfsHashes;\r\n        }\r\n        if( endDate != _endDate ){\r\n            endDate = _endDate;\r\n        }\r\n        if( auctionState == State.Started && keccak256(bytes(auctionTitle)) != keccak256(bytes(\"\")) && endDate != 0 ){\r\n            auctionState = State.Running;\r\n        }\r\n        emit AuctionUpdated(address(this));\r\n    }\r\n\r\n    function isBidder(address _sender) public view returns (bool) {\r\n        return bids[_sender] > 0;\r\n    }\r\n\r\n    function canBid(address _sender) public view returns (bool) {\r\n        return (_sender != owner) && (auctionState == State.Running);\r\n    }\r\n\r\n    function canFinalize(uint _timestamp, address _sender) public view returns (bool) {\r\n        return  (auctionState == State.Canceled || _timestamp > endDate) &&  \r\n                ((_sender == owner && (ownerFinalized == false)) || bids[_sender] > 0);\r\n    }\r\n\r\n    // the main function called to place a bid\r\n    function placeBid() public auctionIsRunning notOwner payable returns(bool) {\r\n        // to place a bid auction should be running\r\n        require(auctionState == State.Running);\r\n        // minimum value allowed to be sent\r\n        // require(msg.value > 0.0001 ether);\r\n        \r\n        uint currentBid = bids[msg.sender] + msg.value;\r\n        \r\n        // the currentBid should be greater than the highestBindingBid. \r\n        // Otherwise there's nothing to do.\r\n        require(currentBid > highestBindingBid);\r\n        \r\n        // updating the mapping variable\r\n        bids[msg.sender] = currentBid;\r\n        \r\n        if (currentBid <= bids[highestBidder]) { // highestBidder remains unchanged\r\n            highestBindingBid = min(currentBid + bidIncrement, bids[highestBidder]);\r\n        } else { // highestBidder is another bidder\r\n             highestBindingBid = min(currentBid, bids[highestBidder] + bidIncrement);\r\n             highestBidder = payable(msg.sender);\r\n        }\r\n        emit AuctionUpdated(address(this));\r\n        return true;\r\n    } \r\n    \r\n    function finalizeAuction() public {\r\n        // the auction has been Canceled or Ended\r\n        require(auctionState == State.Canceled || block.timestamp > endDate); \r\n        \r\n        // only the owner or a bidder can cancel the auction\r\n        require((msg.sender == owner && ownerFinalized == false) || bids[msg.sender] > 0);\r\n        \r\n        // the recipient will get the value\r\n        address payable recipient;\r\n        uint value;\r\n       \r\n        if (auctionState == State.Canceled) { // auction canceled, not ended\r\n            recipient = payable(msg.sender);\r\n            value = bids[msg.sender];\r\n        } else { // auction ended, not canceled\r\n            if (msg.sender == owner) {\r\n                if (ownerFinalized == false) { //the owner finalizes the auction\r\n                    recipient = owner;\r\n                    value = highestBindingBid;\r\n                \r\n                    //the owner can finalize the auction and get the highestBindingBid only once\r\n                    ownerFinalized = true; \r\n                } else {\r\n                    // owner already finalized\r\n                    return;\r\n                }\r\n            } else { // another user (not the owner) finalizes the auction\r\n                if (msg.sender == highestBidder) {\r\n                    recipient = highestBidder;\r\n                    value = bids[highestBidder] - highestBindingBid;\r\n                } else { //this is neither the owner nor the highest bidder (it's a regular bidder)\r\n                    recipient = payable(msg.sender);\r\n                    value = bids[msg.sender];\r\n                }\r\n            }\r\n        }\r\n        // resetting the bids of the recipient to avoid multiple transfers to the same recipient\r\n        bids[recipient] = 0;\r\n       \r\n        //sends value to the recipient\r\n        recipient.transfer(value);\r\n        emit AuctionUpdated(address(this));\r\n    }\r\n}\r\n",
  "sourcePath": "D:\\Diplomna_rabota\\Etherium_Auction\\truffle\\contracts\\Auction.sol",
  "compiler": {
    "name": "solc",
    "version": "0.8.12+commit.f00d7308.Emscripten.clang"
  },
  "schemaVersion": "3.4.5",
  "updatedAt": "2022-03-19T13:06:49.464Z",
  "devdoc": {
    "kind": "dev",
    "methods": {},
    "version": 1
  },
  "userdoc": {
    "kind": "user",
    "methods": {},
    "version": 1
  }
}