{
  "contractName": "AuctionManager",
  "abi": [
    {
      "anonymous": false,
      "inputs": [
        {
          "indexed": false,
          "internalType": "address",
          "name": "_address",
          "type": "address"
        }
      ],
      "name": "AuctionCreated",
      "type": "event"
    },
    {
      "inputs": [
        {
          "internalType": "address",
          "name": "",
          "type": "address"
        },
        {
          "internalType": "uint256",
          "name": "",
          "type": "uint256"
        }
      ],
      "name": "auctions",
      "outputs": [
        {
          "internalType": "contract Auction",
          "name": "",
          "type": "address"
        }
      ],
      "stateMutability": "view",
      "type": "function",
      "constant": true
    },
    {
      "inputs": [
        {
          "internalType": "address",
          "name": "",
          "type": "address"
        }
      ],
      "name": "auctionsCount",
      "outputs": [
        {
          "internalType": "uint256",
          "name": "",
          "type": "uint256"
        }
      ],
      "stateMutability": "view",
      "type": "function",
      "constant": true
    },
    {
      "inputs": [
        {
          "internalType": "uint256",
          "name": "",
          "type": "uint256"
        }
      ],
      "name": "sellers",
      "outputs": [
        {
          "internalType": "address",
          "name": "",
          "type": "address"
        }
      ],
      "stateMutability": "view",
      "type": "function",
      "constant": true
    },
    {
      "inputs": [],
      "name": "sellersCount",
      "outputs": [
        {
          "internalType": "uint256",
          "name": "",
          "type": "uint256"
        }
      ],
      "stateMutability": "view",
      "type": "function",
      "constant": true
    },
    {
      "inputs": [],
      "name": "createAuction",
      "outputs": [],
      "stateMutability": "nonpayable",
      "type": "function"
    },
    {
      "inputs": [
        {
          "internalType": "address",
          "name": "seller",
          "type": "address"
        },
        {
          "internalType": "uint256",
          "name": "index",
          "type": "uint256"
        }
      ],
      "name": "getAuctionAddress",
      "outputs": [
        {
          "internalType": "address",
          "name": "",
          "type": "address"
        }
      ],
      "stateMutability": "view",
      "type": "function",
      "constant": true
    }
  ],
  "bytecode": "0x6080604052600060035534801561001557600080fd5b50612643806100256000396000f3fe608060405234801561001057600080fd5b50600436106100625760003560e01c80632b7ef9c71461006757806344f91c1e146100975780634a704282146100c75780639ae9711e146100f7578063cee26ed514610115578063f581144714610145575b600080fd5b610081600480360381019061007c9190610646565b61014f565b60405161008e9190610695565b60405180910390f35b6100b160048036038101906100ac9190610646565b6101d4565b6040516100be919061070f565b60405180910390f35b6100e160048036038101906100dc919061072a565b610222565b6040516100ee9190610766565b60405180910390f35b6100ff61023a565b60405161010c9190610766565b60405180910390f35b61012f600480360381019061012a9190610781565b610240565b60405161013c9190610695565b60405180910390f35b61014d61027f565b005b60008060008473ffffffffffffffffffffffffffffffffffffffff1673ffffffffffffffffffffffffffffffffffffffff16815260200190815260200160002082815481106101a1576101a06107ae565b5b9060005260206000200160009054906101000a900473ffffffffffffffffffffffffffffffffffffffff16905092915050565b600060205281600052604060002081815481106101f057600080fd5b906000526020600020016000915091509054906101000a900473ffffffffffffffffffffffffffffffffffffffff1681565b60016020528060005260406000206000915090505481565b60035481565b6002818154811061025057600080fd5b906000526020600020016000915054906101000a900473ffffffffffffffffffffffffffffffffffffffff1681565b60003360405161028e9061059f565b61029891906107fe565b604051809103906000f0801580156102b4573d6000803e3d6000fd5b5090506000803373ffffffffffffffffffffffffffffffffffffffff1673ffffffffffffffffffffffffffffffffffffffff168152602001908152602001600020819080600181540180825580915050600190039060005260206000200160009091909190916101000a81548173ffffffffffffffffffffffffffffffffffffffff021916908373ffffffffffffffffffffffffffffffffffffffff1602179055506000600160003373ffffffffffffffffffffffffffffffffffffffff1673ffffffffffffffffffffffffffffffffffffffff1681526020019081526020016000205411156103f95760018060003373ffffffffffffffffffffffffffffffffffffffff1673ffffffffffffffffffffffffffffffffffffffff16815260200190815260200160002060008282546103ed9190610848565b9250508190555061043e565b60018060003373ffffffffffffffffffffffffffffffffffffffff1673ffffffffffffffffffffffffffffffffffffffff168152602001908152602001600020819055505b60006001905060005b6003548110156104df573373ffffffffffffffffffffffffffffffffffffffff166002828154811061047c5761047b6107ae565b5b9060005260206000200160009054906101000a900473ffffffffffffffffffffffffffffffffffffffff1673ffffffffffffffffffffffffffffffffffffffff1614156104cc57600091506104df565b80806104d79061089e565b915050610447565b508015610564576002339080600181540180825580915050600190039060005260206000200160009091909190916101000a81548173ffffffffffffffffffffffffffffffffffffffff021916908373ffffffffffffffffffffffffffffffffffffffff16021790555060016003600082825461055c9190610848565b925050819055505b7f8a8cc462d00726e0f8c031dd2d6b9dcdf0794fb27a88579830dadee27d43ea7c826040516105939190610695565b60405180910390a15050565b611d2680620008e883390190565b600080fd5b600073ffffffffffffffffffffffffffffffffffffffff82169050919050565b60006105dd826105b2565b9050919050565b6105ed816105d2565b81146105f857600080fd5b50565b60008135905061060a816105e4565b92915050565b6000819050919050565b61062381610610565b811461062e57600080fd5b50565b6000813590506106408161061a565b92915050565b6000806040838503121561065d5761065c6105ad565b5b600061066b858286016105fb565b925050602061067c85828601610631565b9150509250929050565b61068f816105d2565b82525050565b60006020820190506106aa6000830184610686565b92915050565b6000819050919050565b60006106d56106d06106cb846105b2565b6106b0565b6105b2565b9050919050565b60006106e7826106ba565b9050919050565b60006106f9826106dc565b9050919050565b610709816106ee565b82525050565b60006020820190506107246000830184610700565b92915050565b6000602082840312156107405761073f6105ad565b5b600061074e848285016105fb565b91505092915050565b61076081610610565b82525050565b600060208201905061077b6000830184610757565b92915050565b600060208284031215610797576107966105ad565b5b60006107a584828501610631565b91505092915050565b7f4e487b7100000000000000000000000000000000000000000000000000000000600052603260045260246000fd5b60006107e8826105b2565b9050919050565b6107f8816107dd565b82525050565b600060208201905061081360008301846107ef565b92915050565b7f4e487b7100000000000000000000000000000000000000000000000000000000600052601160045260246000fd5b600061085382610610565b915061085e83610610565b9250827fffffffffffffffffffffffffffffffffffffffffffffffffffffffffffffffff0382111561089357610892610819565b5b828201905092915050565b60006108a982610610565b91507fffffffffffffffffffffffffffffffffffffffffffffffffffffffffffffffff8214156108dc576108db610819565b5b60018201905091905056fe60806040526000600b60006101000a81548160ff0219169083151502179055503480156200002c57600080fd5b5060405162001d2638038062001d2683398181016040528101906200005291906200014e565b806000806101000a81548173ffffffffffffffffffffffffffffffffffffffff021916908373ffffffffffffffffffffffffffffffffffffffff1602179055506000600660006101000a81548160ff02191690836003811115620000bb57620000ba62000180565b5b02179055504260018190555060006002819055506601c6bf52634000600a8190555050620001af565b600080fd5b600073ffffffffffffffffffffffffffffffffffffffff82169050919050565b60006200011682620000e9565b9050919050565b620001288162000109565b81146200013457600080fd5b50565b60008151905062000148816200011d565b92915050565b600060208284031215620001675762000166620000e4565b5b6000620001778482850162000137565b91505092915050565b7f4e487b7100000000000000000000000000000000000000000000000000000000600052602160045260246000fd5b611b6780620001bf6000396000f3fe6080604052600436106101095760003560e01c806391f9015711610095578063e416d3b211610064578063e416d3b21461035d578063ecfc7ecc1461039a578063f33145ab146103b8578063f5b56c56146103e3578063f77282ab1461040e57610109565b806391f90157146102b357806393b728ab146102de578063a17bf88414610307578063c24a0f8b1461033257610109565b806362ea82db116100dc57806362ea82db146101de5780637fb450991461021b5780638b7b097f146102465780638da5cb5b146102715780638fa8b7901461029c57610109565b80630b97bc861461010e57806319fde1f6146101395780631dceace8146101765780634182dbf2146101a1575b600080fd5b34801561011a57600080fd5b50610123610425565b6040516101309190611462565b60405180910390f35b34801561014557600080fd5b50610160600480360381019061015b91906114ef565b61042b565b60405161016d9190611537565b60405180910390f35b34801561018257600080fd5b5061018b610476565b60405161019891906115eb565b60405180910390f35b3480156101ad57600080fd5b506101c860048036038101906101c39190611639565b610504565b6040516101d59190611537565b60405180910390f35b3480156101ea57600080fd5b50610205600480360381019061020091906114ef565b610610565b6040516102129190611462565b60405180910390f35b34801561022757600080fd5b50610230610628565b60405161023d91906116f0565b60405180910390f35b34801561025257600080fd5b5061025b61063b565b6040516102689190611537565b60405180910390f35b34801561027d57600080fd5b5061028661064e565b604051610293919061172c565b60405180910390f35b3480156102a857600080fd5b506102b1610672565b005b3480156102bf57600080fd5b506102c861072e565b6040516102d5919061172c565b60405180910390f35b3480156102ea57600080fd5b506103056004803603810190610300919061187c565b610754565b005b34801561031357600080fd5b5061031c610941565b60405161032991906115eb565b60405180910390f35b34801561033e57600080fd5b506103476109cf565b6040516103549190611462565b60405180910390f35b34801561036957600080fd5b50610384600480360381019061037f91906114ef565b6109d5565b6040516103919190611537565b60405180910390f35b6103a2610a6e565b6040516103af9190611537565b60405180910390f35b3480156103c457600080fd5b506103cd610dd4565b6040516103da91906115eb565b60405180910390f35b3480156103ef57600080fd5b506103f8610e62565b6040516104059190611462565b60405180910390f35b34801561041a57600080fd5b50610423610e68565b005b60015481565b600080600960008473ffffffffffffffffffffffffffffffffffffffff1673ffffffffffffffffffffffffffffffffffffffff16815260200190815260200160002054119050919050565b6005805461048390611966565b80601f01602080910402602001604051908101604052809291908181526020018280546104af90611966565b80156104fc5780601f106104d1576101008083540402835291602001916104fc565b820191906000526020600020905b8154815290600101906020018083116104df57829003601f168201915b505050505081565b600060038081111561051957610518611679565b5b600660009054906101000a900460ff16600381111561053b5761053a611679565b5b1480610548575060025483115b8015610608575060008054906101000a900473ffffffffffffffffffffffffffffffffffffffff1673ffffffffffffffffffffffffffffffffffffffff168273ffffffffffffffffffffffffffffffffffffffff161480156105bd575060001515600b60009054906101000a900460ff161515145b8061060757506000600960008473ffffffffffffffffffffffffffffffffffffffff1673ffffffffffffffffffffffffffffffffffffffff16815260200190815260200160002054115b5b905092915050565b60096020528060005260406000206000915090505481565b600660009054906101000a900460ff1681565b600b60009054906101000a900460ff1681565b60008054906101000a900473ffffffffffffffffffffffffffffffffffffffff1681565b60008054906101000a900473ffffffffffffffffffffffffffffffffffffffff1673ffffffffffffffffffffffffffffffffffffffff163373ffffffffffffffffffffffffffffffffffffffff16146106ca57600080fd5b6003600660006101000a81548160ff021916908360038111156106f0576106ef611679565b5b02179055507fb53fa3ac8a5a3b4074ef200f128c7e87d27e53afb9d98d33f5ea003e60b4c2703060405161072491906119a7565b60405180910390a1565b600860009054906101000a900473ffffffffffffffffffffffffffffffffffffffff1681565b60008054906101000a900473ffffffffffffffffffffffffffffffffffffffff1673ffffffffffffffffffffffffffffffffffffffff163373ffffffffffffffffffffffffffffffffffffffff16146107ac57600080fd5b838051906020012060046040516107c39190611a61565b6040518091039020146107da576107d9846112e9565b5b828051906020012060056040516107f19190611a61565b604051809103902014610808576108078361133a565b5b8180519060200120600360405161081f9190611a61565b6040518091039020146108445781600390805190602001906108429291906113a6565b505b806002541461085557806002819055505b6000600381111561086957610868611679565b5b600660009054906101000a900460ff16600381111561088b5761088a611679565b5b1480156108c45750604051806020016040528060008152508051906020012060046040516108b99190611a61565b604051809103902014155b80156108d35750600060025414155b15610904576001600660006101000a81548160ff021916908360038111156108fe576108fd611679565b5b02179055505b7fb53fa3ac8a5a3b4074ef200f128c7e87d27e53afb9d98d33f5ea003e60b4c2703060405161093391906119a7565b60405180910390a150505050565b6004805461094e90611966565b80601f016020809104026020016040519081016040528092919081815260200182805461097a90611966565b80156109c75780601f1061099c576101008083540402835291602001916109c7565b820191906000526020600020905b8154815290600101906020018083116109aa57829003601f168201915b505050505081565b60025481565b60008060009054906101000a900473ffffffffffffffffffffffffffffffffffffffff1673ffffffffffffffffffffffffffffffffffffffff168273ffffffffffffffffffffffffffffffffffffffff1614158015610a67575060016003811115610a4357610a42611679565b5b600660009054906101000a900460ff166003811115610a6557610a64611679565b5b145b9050919050565b600060016003811115610a8457610a83611679565b5b600660009054906101000a900460ff166003811115610aa657610aa5611679565b5b14610ab057600080fd5b60008054906101000a900473ffffffffffffffffffffffffffffffffffffffff1673ffffffffffffffffffffffffffffffffffffffff163373ffffffffffffffffffffffffffffffffffffffff161415610b0957600080fd5b60016003811115610b1d57610b1c611679565b5b600660009054906101000a900460ff166003811115610b3f57610b3e611679565b5b14610b4957600080fd5b600034600960003373ffffffffffffffffffffffffffffffffffffffff1673ffffffffffffffffffffffffffffffffffffffff16815260200190815260200160002054610b969190611aa7565b90506007548111610ba657600080fd5b80600960003373ffffffffffffffffffffffffffffffffffffffff1673ffffffffffffffffffffffffffffffffffffffff1681526020019081526020016000208190555060096000600860009054906101000a900473ffffffffffffffffffffffffffffffffffffffff1673ffffffffffffffffffffffffffffffffffffffff1673ffffffffffffffffffffffffffffffffffffffff168152602001908152602001600020548111610cd557610cca600a5482610c639190611aa7565b60096000600860009054906101000a900473ffffffffffffffffffffffffffffffffffffffff1673ffffffffffffffffffffffffffffffffffffffff1673ffffffffffffffffffffffffffffffffffffffff1681526020019081526020016000205461138b565b600781905550610d95565b610d4d81600a5460096000600860009054906101000a900473ffffffffffffffffffffffffffffffffffffffff1673ffffffffffffffffffffffffffffffffffffffff1673ffffffffffffffffffffffffffffffffffffffff16815260200190815260200160002054610d489190611aa7565b61138b565b60078190555033600860006101000a81548173ffffffffffffffffffffffffffffffffffffffff021916908373ffffffffffffffffffffffffffffffffffffffff1602179055505b7fb53fa3ac8a5a3b4074ef200f128c7e87d27e53afb9d98d33f5ea003e60b4c27030604051610dc491906119a7565b60405180910390a1600191505090565b60038054610de190611966565b80601f0160208091040260200160405190810160405280929190818152602001828054610e0d90611966565b8015610e5a5780601f10610e2f57610100808354040283529160200191610e5a565b820191906000526020600020905b815481529060010190602001808311610e3d57829003601f168201915b505050505081565b60075481565b60008054906101000a900473ffffffffffffffffffffffffffffffffffffffff1673ffffffffffffffffffffffffffffffffffffffff163373ffffffffffffffffffffffffffffffffffffffff16148015610ed6575060001515600b60009054906101000a900460ff161515145b80610f2057506000600960003373ffffffffffffffffffffffffffffffffffffffff1673ffffffffffffffffffffffffffffffffffffffff16815260200190815260200160002054115b610f2957600080fd5b600380811115610f3c57610f3b611679565b5b600660009054906101000a900460ff166003811115610f5e57610f5d611679565b5b1480610f6b575060025442115b15610f9c576002600660006101000a81548160ff02191690836003811115610f9657610f95611679565b5b02179055505b600080600380811115610fb257610fb1611679565b5b600660009054906101000a900460ff166003811115610fd457610fd3611679565b5b141561102457339150600960003373ffffffffffffffffffffffffffffffffffffffff1673ffffffffffffffffffffffffffffffffffffffff168152602001908152602001600020549050611221565b60008054906101000a900473ffffffffffffffffffffffffffffffffffffffff1673ffffffffffffffffffffffffffffffffffffffff163373ffffffffffffffffffffffffffffffffffffffff1614156110e85760001515600b60009054906101000a900460ff16151514156110dc5760008054906101000a900473ffffffffffffffffffffffffffffffffffffffff16915060075490506001600b60006101000a81548160ff0219169083151502179055506110e3565b50506112e7565b611220565b600860009054906101000a900473ffffffffffffffffffffffffffffffffffffffff1673ffffffffffffffffffffffffffffffffffffffff163373ffffffffffffffffffffffffffffffffffffffff1614156111d957600860009054906101000a900473ffffffffffffffffffffffffffffffffffffffff16915060075460096000600860009054906101000a900473ffffffffffffffffffffffffffffffffffffffff1673ffffffffffffffffffffffffffffffffffffffff1673ffffffffffffffffffffffffffffffffffffffff168152602001908152602001600020546111d29190611afd565b905061121f565b339150600960003373ffffffffffffffffffffffffffffffffffffffff1673ffffffffffffffffffffffffffffffffffffffff1681526020019081526020016000205490505b5b5b6000600960008473ffffffffffffffffffffffffffffffffffffffff1673ffffffffffffffffffffffffffffffffffffffff168152602001908152602001600020819055508173ffffffffffffffffffffffffffffffffffffffff166108fc829081150290604051600060405180830381858888f193505050501580156112ac573d6000803e3d6000fd5b507fb53fa3ac8a5a3b4074ef200f128c7e87d27e53afb9d98d33f5ea003e60b4c270306040516112dc91906119a7565b60405180910390a150505b565b80600490805190602001906112ff9291906113a6565b507fb53fa3ac8a5a3b4074ef200f128c7e87d27e53afb9d98d33f5ea003e60b4c2703060405161132f91906119a7565b60405180910390a150565b80600590805190602001906113509291906113a6565b507fb53fa3ac8a5a3b4074ef200f128c7e87d27e53afb9d98d33f5ea003e60b4c2703060405161138091906119a7565b60405180910390a150565b600081831161139c578290506113a0565b8190505b92915050565b8280546113b290611966565b90600052602060002090601f0160209004810192826113d4576000855561141b565b82601f106113ed57805160ff191683800117855561141b565b8280016001018555821561141b579182015b8281111561141a5782518255916020019190600101906113ff565b5b509050611428919061142c565b5090565b5b8082111561144557600081600090555060010161142d565b5090565b6000819050919050565b61145c81611449565b82525050565b60006020820190506114776000830184611453565b92915050565b6000604051905090565b600080fd5b600080fd5b600073ffffffffffffffffffffffffffffffffffffffff82169050919050565b60006114bc82611491565b9050919050565b6114cc816114b1565b81146114d757600080fd5b50565b6000813590506114e9816114c3565b92915050565b60006020828403121561150557611504611487565b5b6000611513848285016114da565b91505092915050565b60008115159050919050565b6115318161151c565b82525050565b600060208201905061154c6000830184611528565b92915050565b600081519050919050565b600082825260208201905092915050565b60005b8381101561158c578082015181840152602081019050611571565b8381111561159b576000848401525b50505050565b6000601f19601f8301169050919050565b60006115bd82611552565b6115c7818561155d565b93506115d781856020860161156e565b6115e0816115a1565b840191505092915050565b6000602082019050818103600083015261160581846115b2565b905092915050565b61161681611449565b811461162157600080fd5b50565b6000813590506116338161160d565b92915050565b600080604083850312156116505761164f611487565b5b600061165e85828601611624565b925050602061166f858286016114da565b9150509250929050565b7f4e487b7100000000000000000000000000000000000000000000000000000000600052602160045260246000fd5b600481106116b9576116b8611679565b5b50565b60008190506116ca826116a8565b919050565b60006116da826116bc565b9050919050565b6116ea816116cf565b82525050565b600060208201905061170560008301846116e1565b92915050565b600061171682611491565b9050919050565b6117268161170b565b82525050565b6000602082019050611741600083018461171d565b92915050565b600080fd5b600080fd5b7f4e487b7100000000000000000000000000000000000000000000000000000000600052604160045260246000fd5b611789826115a1565b810181811067ffffffffffffffff821117156117a8576117a7611751565b5b80604052505050565b60006117bb61147d565b90506117c78282611780565b919050565b600067ffffffffffffffff8211156117e7576117e6611751565b5b6117f0826115a1565b9050602081019050919050565b82818337600083830152505050565b600061181f61181a846117cc565b6117b1565b90508281526020810184848401111561183b5761183a61174c565b5b6118468482856117fd565b509392505050565b600082601f83011261186357611862611747565b5b813561187384826020860161180c565b91505092915050565b6000806000806080858703121561189657611895611487565b5b600085013567ffffffffffffffff8111156118b4576118b361148c565b5b6118c08782880161184e565b945050602085013567ffffffffffffffff8111156118e1576118e061148c565b5b6118ed8782880161184e565b935050604085013567ffffffffffffffff81111561190e5761190d61148c565b5b61191a8782880161184e565b925050606061192b87828801611624565b91505092959194509250565b7f4e487b7100000000000000000000000000000000000000000000000000000000600052602260045260246000fd5b6000600282049050600182168061197e57607f821691505b6020821081141561199257611991611937565b5b50919050565b6119a1816114b1565b82525050565b60006020820190506119bc6000830184611998565b92915050565b600081905092915050565b60008190508160005260206000209050919050565b600081546119ef81611966565b6119f981866119c2565b94506001821660008114611a145760018114611a2557611a58565b60ff19831686528186019350611a58565b611a2e856119cd565b60005b83811015611a5057815481890152600182019150602081019050611a31565b838801955050505b50505092915050565b6000611a6d82846119e2565b915081905092915050565b7f4e487b7100000000000000000000000000000000000000000000000000000000600052601160045260246000fd5b6000611ab282611449565b9150611abd83611449565b9250827fffffffffffffffffffffffffffffffffffffffffffffffffffffffffffffffff03821115611af257611af1611a78565b5b828201905092915050565b6000611b0882611449565b9150611b1383611449565b925082821015611b2657611b25611a78565b5b82820390509291505056fea2646970667358221220c7b3b79b5b60fba76f2ea96e7475862bc40332abb015456d1ff6536c9353075d64736f6c634300080c0033a26469706673582212207bfb20a3a7e65bc6d2c1e0293c258f2d5263100a9ce109963d8d48f44cf86e7d64736f6c634300080c0033",
  "immutableReferences": {},
  "source": "//SPDX-License-Identifier: GPL-3.0\r\n\r\npragma solidity >=0.6.0 <0.9.0;\r\n\r\nimport \"./Auction.sol\";\r\n\r\n// this contract will deploy the Auction contract\r\ncontract AuctionManager {\r\n    // declaring a dynamic array with addresses of deployed contracts\r\n    //Auction[] public auctions;\r\n\r\n    mapping (address => Auction[]) public auctions;\r\n    mapping (address => uint) public auctionsCount;\r\n    address[] public sellers;\r\n    uint256 public sellersCount = 0;\r\n    \r\n    event AuctionCreated(address _address);\r\n\r\n    // declaring the function that will deploy contract Auction\r\n    function createAuction() public {\r\n        \r\n        // passing msg.sender to the constructor of Auction \r\n        Auction newAuction = new Auction(payable(msg.sender)); \r\n        // adding the address of the instance to the dynamic array\r\n        auctions[msg.sender].push(newAuction); \r\n\r\n        if (auctionsCount[msg.sender] > 0){\r\n            auctionsCount[msg.sender] +=1;\r\n        }\r\n        else {\r\n            auctionsCount[msg.sender] = 1;\r\n        }\r\n        bool newSeller = true;\r\n        for (uint i = 0; i < sellersCount; i++) {\r\n            if(sellers[i] == msg.sender) {\r\n                newSeller = false;\r\n                break;\r\n            }\r\n        }\r\n        if (newSeller) {\r\n            sellers.push(msg.sender);\r\n            sellersCount += 1;\r\n        }\r\n\r\n        emit AuctionCreated(address(newAuction));\r\n    }\r\n\r\n    function getAuctionAddress(address seller, uint256 index) public view returns(address) {\r\n        return address(auctions[seller][index]);\r\n    }\r\n}\r\n",
  "sourcePath": "C:\\Users\\\\Desktop\\diplomna-public\\Etherium-Auction\\contracts\\AuctionManager.sol",
  "compiler": {
    "name": "solc",
    "version": "0.8.12+commit.f00d7308.Emscripten.clang"
  },
  "schemaVersion": "3.4.6",
  "updatedAt": "2022-05-21T22:36:14.880Z",
  "networkType": "ethereum",
  "devdoc": {
    "kind": "dev",
    "methods": {},
    "version": 1
  },
  "userdoc": {
    "kind": "user",
    "methods": {},
    "version": 1
  }
}